:02000002B0004C
:1040000000400B0072960B00000006000C00050239
:084010000401B41400000000DB
:0440180054850B00C0
:10401C007BB972B90029BEBF00204FF0004106E009
:10402C0008BF00281CBF6FF000414FF0FF3000F0BC
:10403C00BFB9ADF1080C6DE904CE002909DB002BEA
:10404C001ADB00F04DF8DDF804E0DDE9022304B0E2
:10405C007047404261EB4101002B1BDB00F040F844
:10406C00DDF804E0DDE9022304B0404261EB4101DC
:10407C00524263EB43037047524263EB430300F03D
:10408C002FF8DDF804E0DDE9022304B0404261EBD7
:10409C0041017047524263EB430300F021F8DDF815
:1040AC0004E0DDE9022304B0524263EB43037047A2
:1040BC0053B94AB9002908BF00281CBF4FF0FF3183
:1040CC004FF0FF3000F074B9ADF1080C6DE904CE7F
:1040DC0000F006F8DDF804E0DDE9022304B07047D7
:1040EC002DE9F047089D04468E46002B4DD18A429F
:1040FC00944669D9B2FA82F252B101FA02F3C2F1D2
:10410C00200120FA01F10CFA02FC41EA030E944062
:10411C004FEA1C48210CBEFBF8F61FFA8CF708FB83
:10412C0016E341EA034306FB07F199420AD91CEB5B
:10413C00030306F1FF3080F01F81994240F21C818D
:10414C00023E63445B1AA4B2B3FBF8F008FB1033D5
:10415C0044EA034400FB07F7A7420AD91CEB04040A
:10416C0000F1FF3380F00A81A74240F207816444DA
:10417C00023840EA0640E41B00261DB1D44000235F
:10418C00C5E900433146BDE8F0878B4209D9002DC3
:10419C0000F0EF800026C5E9000130463146BDE84D
:1041AC00F087B3FA83F6002E4AD18B4202D38242B7
:1041BC0000F2F980841A61EB030301209E46002D66
:1041CC00E0D0C5E9004EDDE702B9FFDEB2FA82F2BB
:1041DC00002A40F09280A1EB0C014FEA1C471FFA19
:1041EC008CFE0126200CB1FBF7F307FB131140EA00
:1041FC0001410EFB03F0884208D91CEB010103F1CD
:10420C00FF3802D2884200F2CB804346091AA4B28E
:10421C00B1FBF7F007FB101144EA01440EFB00FE62
:10422C00A64508D91CEB040400F1FF3102D2A645C7
:10423C0000F2BB800846A4EB0E0440EA03409CE766
:10424C00C6F12007B34022FA07FC4CEA030C20FA13
:10425C0007F401FA06F31C43F9404FEA1C4900FA33
:10426C0006F3B1FBF9F8200C1FFA8CFE09FB1811B0
:10427C0040EA014108FB0EF0884202FA06F20BD923
:10428C001CEB010108F1FF3A80F08880884240F273
:10429C008580A8F102086144091AA4B2B1FBF9F0B7
:1042AC0009FB101144EA014100FB0EFE8E4508D9B2
:1042BC001CEB010100F1FF346CD28E456AD9023837
:1042CC00614440EA0840A0FB0294A1EB0E01A1421C
:1042DC00C846A64656D353D05DB1B3EB080261EB8A
:1042EC000E0101FA07F722FA06F3F1401F43C5E964
:1042FC00007100263146BDE8F087C2F12003D8409A
:10430C000CFA02FC21FA03F3914001434FEA1C47DB
:10431C001FFA8CFEB3FBF7F007FB10360B0C43EACD
:10432C00064300FB0EF69E4204FA02F408D91CEB7D
:10433C00030300F1FF382FD29E422DD9023863447B
:10434C009B1B89B2B3FBF7F607FB163341EA03411B
:10435C0006FB0EF38B4208D91CEB010106F1FF386A
:10436C0016D28B4214D9023E6144C91A46EA004661
:10437C0038E72E46284605E70646E3E61846F8E6F3
:10438C004B45A9D2B9EB020864EB0C0E0138A3E73C
:10439C004646EAE7204694E74046D1E7D0467BE71D
:1043AC00023B614432E7304609E76444023842E795
:1043BC00704700BF10F8012B11F8013B012A28BFF0
:1043CC009A42F7D0D01A7047034613F8012B002AF3
:1043DC00FBD1181A0138704709480A49884208B5B8
:1043EC0005D0094A824202D0121A03F05BFF07483B
:1043FC00074A0021121A03F063FF014808BD00BFF1
:10440C00D0E40320C8950B004CE5032050E50320B5
:10441C00F4E7032070B5074E074C02F073FFA41BA2
:10442C00A4080025AC4200D170BD56F8043B984757
:10443C000135F7E774950B009C950B0000F05EB806
:10444C0008B500F047F9BDE8084002F013BF02F0D0
:10445C003BBC02F039BC02F03FBC02F03DBC00009A
:10446C0008B5034A03490C2002F082FBFEE700BFAB
:10447C003D680B0068850B000078B0FA80F04009AD
:10448C007047012303707047F0B502F1080383B045
:10449C0023F0070302AFADEB030D02AB1846144635
:1044AC0003F000FF0022025503F0F8FE114CC4E9A2
:1044BC00000103F049F8104902F0F6FD03F044F84E
:1044CC00D4E90045002D064610DA2D2102F0F0FD4E
:1044DC00624265EB45030A210091304602F015FE5D
:1044EC00304602F0E8FD0437BD46F0BD22462B46AF
:1044FC00F1E700BF88E603207D850B0008B503F0CB
:10450C0023F84FF4165103F00FF803F01DF803F0E5
:10451C000FF80028F9D0084801F080F8074800F09F
:10452C0094F9064800F0CAF9054B06481968BDE82D
:10453C00084001F0B7BC00BF10E6032094E603204E
:10454C00A8E60320B0E503202DE9F74F0C9C9DF85D
:10455C0034A09DF838B02C4F00921E469DF83C308C
:10456C000D464FF00008009A90452BDA1A46594632
:10457C005046019300F091FB1FFA85F9024649461B
:10458C00384600F047FB384600F098F9304602F008
:10459C002FFE00221146104600F07FFB49460246D2
:1045AC00384600F037FB384600F088F901353046C4
:1045BC0002F01EFE95FBF4F1019B04FB115508F172
:1045CC000108D0E7104D013C002C0CDDA6B2711E89
:1045DC0089B2284600F066FB31460246284600F0B8
:1045EC0019FB013CF0E700221146104600F055FB88
:1045FC0000210246044800F00DFB034803B0BDE85F
:10460C00F04F00F05BB900BF94E603202DE9F041B8
:10461C002A4BDFF8BC80D3E900670A2230463946C2
:10462C000023FFF7F5FC264B14461C600A220023DE
:10463C0030463946FFF7ECFC4FF47A7200230646FD
:10464C000D46FFF7E5FC1F4B1F4F1A6030464FF429
:10465C007A7200232946FFF7DBFC4FF47A720023B1
:10466C0006460D46FFF7D4FC00233A6030464FF463
:10467C007A722946FFF7CCFC4FF47A720023064677
:10468C000D46FFF7C5FC0023C8F8002030464FF458
:10469C007A722946FFF7BCFC4FF47A720023FFF7BD
:1046AC00B7FC012C094908BF00230A6002BF0B604C
:1046BC00C8F800303B60BDE8F08100BF88E60320FD
:1046CC0084E60320ACE50320D4E4032090E6032029
:1046DC0080E6032000B5204889B000F0C8FF1F48D1
:1046EC0001F050F938B31D4801F094FA1C4BD3E992
:1046FC000023022A73F1000301DBFFF787FF194B3C
:10470C00194A1A491B6812680968DBB20193C9B2CD
:10471C00D2B2174B039102921B680093154B0021E8
:10472C0008461B680C22FFF70FFF0B4809B05DF819
:10473C0004EB01F09BBF04A802F0B6FA04990748F9
:10474C0001F010FA04A802F0F9FB0B4B03481968AE
:10475C0001F0A8FBCAE700BF10E60320B0E5032078
:10476C0088E6032090E6032080E60320D4E40320AF
:10477C00DCE40320D8E40320A8E6032037B5194D68
:10478C00284603F073FA05F11C0002F027FE164BC5
:10479C00164917480024C3E90054C3E90244C3E98D
:1047AC0004449C619C836C632C8702F012FC114ABC
:1047BC001149127809881148022300F06DF821463E
:1047CC00012002F0F5F90E4B0E49009440F25B7299
:1047DC000D4800F0FBFF0D48072103B0BDE8304049
:1047EC0000F0EEBE70E5032050E5032084850B003D
:1047FC00A8E60320D0E40320DCE4032094E60320A5
:10480C0095440B0090850B00B0E5032010E60320C7
:10481C0038B50446C0680D4608B102F05DFAA379BC
:10482C00062B0CBF0420032010FB05F080B2A080E7
:10483C0002F04AFAE06028B1A288002103F040FDA2
:10484C00658038BDA0806080FBE710B5044601216F
:10485C00C07903F04DFBE079002103F05AFB0123F2
:10486C00237010BD37B5037805460C461BB1C079D3
:10487C00002103F03DFB2B78EC715BB1A0B2012160
:10488C00019003F035FB0198002103B0BDE83040E6
:10489C0003F03FBB03B030BD70B50025044616468F
:1048AC008371C0E9035505700572FFF7B1FF20460F
:1048BC003146FFF7D7FF204670BD0000C368002BC0
:1048CC0000F0A4812DE9F04F8379023BDBB2042B7D
:1048DC009CBFBF4A52F8234085B0054688BF32249E
:1048EC0001F0AEFF2B69C01AA042F9D3B94CAE88C7
:1048FC00D4F800351BB9D4F86035002B7EDBB64CF0
:10490C00D4F8003523B9D4F86035002BC0F26E8191
:10491C00B24CD4F80035002B00F04481EB79B04A4E
:10492C00B04C1268190102EB0313575CAE495B786B
:10493C00D1F8FC2042F08072C1F8FC20226803F010
:10494C001F0343EA471301273A432260A988D5F88D
:10495C000C80D4F804909F40002944D04FF0000EF6
:10496C0072464FF0A04118F801CB082080266368EE
:10497C009B1A462BFBD96268D1F808351CEA060F46
:10498C0043EA0703C1F808352FD063689B1A282B1C
:10499C00FBD9D1F80C35013843EA07034FEA560628
:1049AC00C1F80C35E3D1AB880EF1010E1FFA8EFE67
:1049BC007345D8D84FF4307103FB01F163689B1A2F
:1049CC00462BFBD96368A3EB09098945C0F0E48049
:1049DC004FF4967001F02CFFA988D5F80C80D4F810
:1049EC0004900029BAD10A46E8E763689B1A112B98
:1049FC00CFD863689B1A112BF7D9CAE7D4F8643562
:104A0C00002BBFF67CAFD4F86835002BBFF677AF20
:104A1C00D4F86C35002BBFF672AF3601331D184637
:104A2C00009302F051F900283FF478AFAB88002BCB
:104A3C0000F0ED80EA68013B12FA83F702F1FF3EC9
:104A4C00002348F2060248F20D011EF801CF1CF0BB
:104A5C00800F0CBF93468B461CF0400F0CBF1646C4
:104A6C000E461CF0200F0CBF9046884603F101093E
:104A7C00CDF80880019603F102081FFA89F9019E0E
:104A8C0020F813B01FFA88F820F81960029E20F85D
:104A9C00186003F103081CF0100F1FFA88F80CBF04
:104AAC0093468B4620F818B003F104081CF0080F4D
:104ABC001FFA88F80CBF93468B4620F818B003F108
:104ACC0005081CF0040F1FFA88F80CBF93468B46A0
:104ADC0020F818B003F1080A03F1060807339BB25B
:104AEC001CF0020F1FFA88F80CBF93468B46CDF8CA
:104AFC000CA01CF0010F20F818B015BF20F81310F3
:104B0C0020F813201FFA8AF3BDF80C3077459CD19E
:104B1C00591C023389B29BB249005B004FF4004729
:104B2C004752009AC7522E4B56081F680022142376
:104B3C00C4F80425C4F80C25C4F80835C4F81425A9
:104B4C00C4F81025C4F82005C4F82465C4F8282539
:104B5C00C4F82C25EB7907EB031C1B010121FE5C2F
:104B6C009CF8013003F01F0343EA4613C4F8603588
:104B7C00C4F80015C4F81021A160D4F81031002B32
:104B8C00FBD000234FF0FF32C4F81031C4F80035CD
:104B9C00C4F8602502F0A0F801F052FE286105B0BF
:104BAC00BDE8F08FD4F86035002BBFF6B7AED4F863
:104BBC006435002BBFF6B2AED4F86835002BBFF6C7
:104BCC00ADAED4F86C35002BBFF6A8AE25E700BF10
:104BDC00A0850B0000C001400010024000200240E4
:104BEC00B8E60320001000E000ED00E0D4F86435D6
:104BFC00002BBFF68DAED4F86835002BBFF688AE0F
:104C0C00D4F86C35002BBFF683AE06E7704704234F
:104C1C00022183E743888B42F0B52DD9067AC2F383
:104C2C000743C2F30724D5B23EB1734374437543B3
:104C3C00C3F30723C4F307242D0A90F806C0C768F2
:104C4C00BCF1060F0CBF042603264E43ACF1020C3C
:104C5C00B919BCF1060F1DD8DFE80CF0041C0804D0
:104C6C000F040400BC554B708D7005E0FE2B28BF63
:104C7C00FE23BB554D708C70F0BDBB554C708D70C8
:104C8C00037A120E13B9D2B2CA70F5E75A43C2F3C3
:104C9C000722F9E7BB554C70E6E742EA012141EAED
:104CAC0000407047F7B543888B4246D98479C66873
:104CBC00062C0CBF042503254D437219A71E5378EF
:104CCC00715D9278062F34D8DFE807F004330904BD
:104CDC000D040400090241EA0343134305E01202E8
:104CEC0042EA0142F9E773591BBA027A0193EAB11D
:104CFC00062C01BF9DF807301B02B3FBF2F38DF8B5
:104D0C0007309DF804301B02B3FBF2F38DF804302E
:104D1C009DF805301B02B3FBF2F38DF805309DF8BE
:104D2C0006301B02B3FBF2F38DF80630019803B08A
:104D3C00F0BD1B0243EA0143CFE70020F7E7000078
:104D4C0008B501F03DFD014B186008BDB8E6032025
:104D5C00704710B510210446FFF77FFB204610BDAD
:104D6C000EB403B503AB002153F8042B019302F0EE
:104D7C00FBF902B05DF804EB03B0704773B5044661
:104D8C0008462279A36832B1A3B90B4902B0BDE839
:104D9C00704002F089B9094A267B094D0949647BA8
:104DAC00012E18BF2946CDE900140749FFF7D8FF9B
:104DBC0002B070BD054AEFE7C5850B0083850B007B
:104DCC00C1850B00BD850B00DB850B00B4850B008A
:104DDC002DE9F04F85B01F46BDF93880BDF83C3049
:104DEC00A8EB0209A7EB010AB9F1000FB8BFC9F192
:104DFC000009BAF1000FB8BFCAF1000AD1458346C9
:104E0C000C46154604DD3A462C4647460D46904660
:104E1C00BC4205DD2A464546904622463C4617468E
:104E2C003E1BB2B20092A8EB050282EAE271A1EB42
:104E3C00E271C6F3C03202FA86F64545B4BF0122D0
:104E4C004FF0FF32019176100292BC421CDCDBF871
:104E5C0000200393D145D2F81880C7BF29462246BB
:104E6C002A4621465846C047019A039BB61AB1B24E
:104E7C0036B2002E05DA029A1544009A56182DB255
:104E8C0036B2013424B2E0E705B0BDE8F08F7047CC
:104E9C0010B404682469A4465DF8044B604730B430
:104EAC000468BDF808500295A46BA44630BC60475A
:104EBC0030B40468BDF808500295E46BA44630BCCD
:104ECC00604770B4BDF90C50BDF810600468CDE9B2
:104EDC000356246CA44670BC60472DE9F3411C4674
:104EEC000368BDF820805B6905461646013C3444D6
:104EFC000F4624B298472B68CDF8048000949C6A26
:104F0C0028463B4632463946A0472B68DB6A284682
:104F1C0002B0BDE8F04118472DE9F3411D46036886
:104F2C00BDF820805B69044617460E469847CDE9CC
:104F3C00007822686B1E3344956A20461BB23A46B1
:104F4C003146A8472368DB6A204602B0BDE8F04131
:104F5C0018472DE9F3471E460368BDF928905B6995
:104F6C00BDF82C800C460546174698472644B4429B
:104F7C002B680BDACDF80080D3F820A021464B46E5
:104F8C003A4628460134D04724B2F0E7DB6A28467B
:104F9C0002B0BDE8F047184713B502680191B0F9AB
:104FAC000E100091146CB0F90C3000221146A04781
:104FBC0002B010BD2DE9F74399421646BDF9287091
:104FCC00BDF82C90026880460D461C4613D1BE429B
:104FDC00C8BF3346CDF82890C4BF3E461F467B1C45
:104FEC00946B9B1B1BB2324629464046A44603B029
:104FFC00BDE8F0436047BE420AD19942C2BF0B469E
:10500C0025461C46631CCDF82890D46B5B1BE9E746
:10501C0053699847CDE90079D8F8003040469F6A2B
:10502C00324623462946B847D8F80030DB6A40465A
:10503C0003B0BDE8F04318472DE9F3471D4603685C
:10504C00BDF82C805B69BDF9289004460F461646C6
:10505C0098472368CDF80080D3F824A032462B461D
:10506C0039462046D0472368CDF8008009F1FF323D
:10507C003244D3F824A039462B46204612B2D047EE
:10508C002368CDF80080D3F820A032464B46394631
:10509C002046D0476B1ED9192368CDF800801D6AB5
:1050AC0020464B46324609B2A8472368DB6A2046A5
:1050BC0002B0BDE8F0471847704701F00303B0F9A0
:1050CC000A208376C907B0F9083059BF8381C281A1
:1050DC008281C3817047000030B54281C281074A8A
:1050EC00074D0181002481814FF0FF31C0E9051289
:1050FC004460056004610477046230BD0101000165
:10510C00008B0B002DE9F04F89B0CDE9021202683B
:10511C00BDF948800493BDF94C3052690593BDF834
:10512C0050A00446904718F107024FF0000648BF04
:10513C0008F10E024FEAE20B01963546039B019AE9
:10514C00BDF904109A18059B8B4212B227DD049B03
:10515C0033444FF0000906930FFA89F080451FFA8B
:10516C0089F117DD4F0705BF069BC0106D001D5C54
:10517C0018BFEDB22B060AD5029B20680792194482
:10518C00836909B21F4620465346B847079A09F16E
:10519C000109E1E7019B013301935E44CEE72368EB
:1051AC00DB6A204609B0BDE8F04F18472DE9F04FF7
:1051BC002DED028B91B01646026ABDF874809DF8F5
:1051CC0078509DF87C4003911F46BDF870300493D5
:1051DC008346002A40F0C580B0F90C308B4240F376
:1051EC004C81B0F90E30B34240F34781062313FBD8
:1051FC000513002B40F3418106EBC403002B40F355
:10520C003C81037F1BB9AF2F84BF0137FFB2DBF8A2
:10521C00003058465B699847052209920022059296
:10522C00984A07EB8703D3180C93B3B20693059AED
:10523C000C9B9B5C0793ABB20B93BDF80C300893A3
:10524C00039B02FB05F919FA83F90FFA89F308EEAF
:10525C00103A08230A93039B02EB030A4FF0000950
:10526C000FFA8AFA079ADBF80030D20752D5012DD3
:10527C001FFA89F23ED1012C3CD19B6906991F463D
:10528C00049B0A4412B251465846B84709F101032F
:10529C004FFA83F9079B5B0807930A9B013B13F0BA
:1052AC00FF030A93DED1059F01377BB20593099B5F
:1052BC00013B13F0FF030993B9D1049B43450FD075
:1052CC00012DDBF800303BD1012C39D10899CDF8F8
:1052DC00008005311C6A3246082309B25846A047A3
:1052EC00DBF80030DB6A584611B0BDEC028BBDE830
:1052FC00F04F1847069914FB02F20A4404990191E5
:10530C000094DB6918EE101A1F4612B22B46584651
:10531C00B847BBE7049A4245B8D0012D1FFA89F271
:10532C0007D1012C05D19B6906991F460A444346B7
:10533C00A8E70699CDF8048014FB02F20A44DFE7D3
:10534C000B9ACDF8048002EB8201089AE4000A441F
:10535C0011460094DC6932462B4609B25846A047E8
:10536C00BEE7137A516812680B92FF1AFFB201EB79
:10537C00C70331F8372006929A780992DA780C92A2
:10538C00012D93F9052093F906A00A9201D8012C5E
:10539C0057D9BDF9283008930FFA8AF30793DBF835
:1053AC00003058465B699847B3B24FF000080E9333
:1053BC001AFA86F3C14647460F930C9B9F428FD235
:1053CC00079B0E9A3B4403FB0423002205920F9A81
:1053DC001BB202EB070A08EE103A0FFA8AFA4346A0
:1053EC00099A0599914241D25A1CD2B25B070D928F
:1053FC0007D1069B06990B9A01339BB212F80190C8
:10540C00069319F0800F12D0012DDBF80030BDF897
:10541C000C101AD1012C18D10A9A9B691144059AC7
:10542C0011441E465246049B09B25846B047059E8D
:10543C000136F3B24FEA490905935FFA89F90D9BDE
:10544C00CEE70023CDE90733A9E70598089A024473
:10545C0002FB0511049ACDE90042DB6918EE102A13
:10546C001E4609B22B465846B047E0E7099B013768
:10547C0098445FFA88F8FFB29FE711B0BDEC028B3D
:10548C00BDE8F08FF8850B00F0B5026A85B00446D4
:10549C000B46002A34D10A2908D1438A0282427E63
:1054AC0003EBC2036382012005B0F0BD0D29FAD0D5
:1054BC00E17E007E657E71B1B4F91060062111FBAE
:1054CC000061B4F90C60B142C1BFB4F91210228270
:1054DC0001EBC5026282E28A0192A28A0092CDE9B6
:1054EC000205B4F91220B4F910102046FFF75EFE45
:1054FC00237E228A03EB430302EB43032382D2E78E
:10550C000A2907D100230382417E927A438A01FB48
:10551C000233C7E70D29C6D0157AA942C3D3517AF5
:10552C009942C0D351685D1BEDB201EBC505A8785B
:10553C0028B3E97819B3E17E267E677E91B195F99F
:10554C0005100844B4F9101006FB0011B4F90C0056
:10555C00814207DD00202082B4F91210927A02FBFE
:10556C0007126282E28A0192A28A0092CDE9026756
:10557C00B4F91220B4F910102046FFF717FE297960
:10558C00227E238A01FB0233B8E7000010B5064BDC
:10559C0003600446006D08B101F06AF9204600F082
:1055AC0085FC204610BD00BF588B0B0010B504467F
:1055BC00FFF7ECFF20467021FEF74FFF204610BD91
:1055CC0030B585B004460D4602F02AFD104A11494B
:1055DC00CDE901214FF0FF32802103460092204695
:1055EC00202200F0DBFC0C4B23600023C4E91435B3
:1055FC0004F1580000F054F804F1600000F050F889
:10560C0004F1680000F04CF8204605B030BD00BF36
:10561C00801A0600A0860100588B0B0013B50446B7
:10562C00503001F01DF9636DD90705D50222042114
:10563C0004F1580000F048F8636D9A0705D5002274
:10564C00032104F1600000F03FF8636D5B0705D5A2
:10565C000222114604F1680000F036F80123009391
:10566C003C220221204600F0A1FD02B010BD10B575
:10567C00436DD907044602D5583000F032F8636DFB
:10568C009A0703D504F1600000F02BF8636D5B07FB
:10569C0005D504F16800BDE8104000F022B810BD3B
:1056AC0000210A22C0E900127047002310B50446FD
:1056BC00C171837188B202F045FC08B10323A37158
:1056CC0001F0C6F8206010BD38B50C4605461146F1
:1056DC00A0B202F00DFC21462846BDE83840FFF789
:1056EC00E4BF38B50446C07902F02CFCA57900382B
:1056FC0025F0080318BF0120C5F340058542A371AE
:10570C000AD001F0A5F8A379206083F00203A371FD
:10571C00A079C0F3C00038BD01F09AF82368C01A14
:10572C00A3889842F4D3A37903F00103AB42EFD0E2
:10573C0001F08EF8A379206083F0010343F0080395
:10574C00E5E791F85C3010B50446016013B1886D43
:10575C0001F096F8204610BD10B5036893F85C2054
:10576C00044612B1986D01F093F8204610BDF8B5BF
:10577C001F469DF8243004460D4616462BB10123D6
:10578C0080F85C30583001F06BF8089B23630023E1
:10579C00636306B1A66425B1294604F1380001F013
:1057AC002CFC069B2365079BE069A4F84C70FF2B2F
:1057BC00B8BFFF23A4F8543008B1FEF74CFEB4F880
:1057CC005400FEF746FEE061F8BD00002DE9FF41F4
:1057DC0004460025174698460E4602F047FA0D4936
:1057EC00E56104F1380001F0F4FB9DF82830A56464
:1057FC00CDE90283FF220F23CDE90032204684F845
:10580C005C503B462A463146FFF7B1FF204604B0B8
:10581C00BDE8F08183850B0010B50446204602F0EC
:10582C0081F90028FAD0204601F08AFFC0B210BDE1
:10583C002DE9F04705468846FFF7EEFFEB69187037
:10584C00EB6993F800A04FF001090AF0F00A002769
:10585C004C462846FFF7E0FF2646EB69985500F0CA
:10586C007F0313FB09F31F4401340306A4B2BFB238
:10587C004FEAC919EDD4631EBAF1300F88F8003025
:10588C001ED12846FFF7C8FFEB6918552846FFF7CD
:10589C00C3FFF41C0236B6B2EB69A4B298550226CB
:1058AC00B6B2BE420ED22846FFF7B6FFB5F854305A
:1058BC00A34284BFEB6918550134A4B20136EFE75B
:1058CC000026EDE7B5F85430A3422CBF204600204B
:1058DC00BDE8F0872DE9F34115461E461A460746EA
:1058EC000023964602A802F07F0CBEF17F0F03F155
:1058FC000104034488BF4CF0800CBEF17F0F4FEACB
:10590C00D212E4B203F804CC1ED8C4F10403C4F1DF
:10591C000500E954224601A9284405EB030802F0CE
:10592C00C1FC721C22444146384601F0F4FE054687
:10593C0000F08EFF621C78623244A8B2131A5842EF
:10594C00584102B0BDE8F0812346CAE70233F0B5F6
:10595C00054698B20023CE5C9CB256B1B5F854C043
:10596C00844503F1010704D9441C16543B46A0B2EC
:10597C00F1E799B2411A0A44210A02F8021C02F812
:10598C00013CF0BD38B5044601F0EEFF002814BF11
:10599C000125002502D1204602F01EF9284638BD0B
:1059AC002DE9F04788B00446DDF840809DF850A002
:1059BC00894617461E46FFF7E5FF0546002840F0CE
:1059CC00CD80214601A8FFF7BCFEA16C002940F058
:1059DC008880B4F84C20A16B2B46204601F046FF82
:1059EC0000287AD0012323849DF85430E269042BDB
:1059FC005B4B40F08180186899889B79ADF80C104E
:105A0C008DF80E300290C2F805009DF80E30BDF8EE
:105A1C000C10A2F80910D3720C23B8F1000F00F08F
:105A2C0081809DF848009DF84420400140EAC20066
:105A3C0040F00600C0B2BAF1000F01D100F0FD0039
:105A4C001FB1002E70D140F08000E269D054226D5D
:105A5C00E169581C12120A549A1CE169206D885491
:105A6C000333E26949462046FFF770FF0346B8F15D
:105A7C00000F0BD0E26941462046FFF767FFE26951
:105A8C00139903462046FFF761FF034667B1E269AD
:105A9C0039462046FFF75AFF03462EB1E2693146DC
:105AAC002046FFF753FF0346053BE2699BB21021EA
:105ABC002046FFF70FFF00F0CBFEC4E909004FF4BE
:105ACC007A76204602F02EF888BB00F0C1FEA36A5D
:105ADC00C01A236D73439842F3D9204602F07CF828
:105AEC0035E002A801F0BEFCB4F84C202B4602A90C
:105AFC00204601F09BFF73E7D3F80700D3F80B1097
:105B0C00DB7B0DF1080CACE803008CF8003002AB29
:105B1C0003CBC2F80500C2F809109CF8003053738F
:105B2C000E237AE7022086E740F0C0008DE702A939
:105B3C002046FFF77DFE0428CFD1E369DE78002EE6
:105B4C00CBD100F085FE0125A06284F82C6001A861
:105B5C00FFF702FE284608B0BDE8F0870025F9E7FC
:105B6C0044850B007FB501230422CDE904320023C8
:105B7C00CDE90233CDE900331A46FFF711FF07B028
:105B8C005DF804FB73B504460E46FFF7FBFE0546B5
:105B9C00C8B1214601A8FFF7D4FDE36962221A704F
:105BAC00E36902225A70E369320A9A70E369DE7083
:105BBC00E1690422204601F0AEFD051E01A818BFC4
:105BCC000125FFF7C9FD284602B070BD73B5044628
:105BDC000E46FFF7D7FE0546C8B1214601A8FFF7D0
:105BEC00B0FDE36972221A70E36902225A70E3690C
:105BFC00320A9A70E369DE70E1690422204601F0F2
:105C0C008AFD051E01A818BF0125FFF7A5FD284632
:105C1C0002B070BD2DE9F04F2DED028B87B000AFB7
:105C2C000446FFF7AFFE8146F8B1214607F1140098
:105C3C00FFF787FD00F00CFE236D4FF47A7253438F
:105C4C00A26A821A9A42064603D8626A821A934260
:105C5C0021D294F82C307BB1204601F0BDFF4FF0DF
:105C6C00000907F11400FFF777FD48461C37BD46C5
:105C7C00BDEC028BBDE8F08FE269C0211170E269C6
:105C8C005370E1690222204601F045FDC4E9096622
:105C9C00012384F82C30204601F044FF0028E0D08A
:105CAC0007F113012046FFF7C3FD83460028D8D027
:105CBC00E369A662197801F0F002302A7FD1D4F89A
:105CCC0030A0BAF1000FCCD097F813C06A4608EE9A
:105CDC00102A03EB0C025178957805EB0125ADB237
:105CEC0005F108026946D208A1EBC20295460CF1F7
:105CFC000302FA6003EB020E0DEB05026846C7F8CF
:105D0C0008D07A60D7E901218A4206D00A461EF8EB
:105D1C00018B02F8018BBA60F4E70022425593F82C
:105D2C000080F96808F00608ABEB0C02033AB8F1F6
:105D3C00020FA2EB0502294425D113F801E0194406
:105D4C00023A91F801B00CF10501294419440BEB0E
:105D5C000E2BD047E36940221A70E3691FFA8BFBC4
:105D6C0083F80180E3694FEA1B229A70E36983F898
:105D7C0003B0E1690422204601F0CDFC666218EE06
:105D8C00103A9D466DE7B8F1040F15D113F801E0F8
:105D9C001944023A91F801B00CF105012944194457
:105DAC000BEB0E2BD047E36950221A70E3690222E9
:105DBC001FFA8BFB5A70D5E71944D047DFE7502AFE
:105DCC0008D19A78D97801EB022189B22046FFF7E5
:105DDC00D9FE46E7402A12D1626B002A3FF441AF4C
:105DEC00BBF1040F7FF43DAF11F0060F7FF439AF18
:105DFC009978D87800EB012080B2904731E7602A7F
:105E0C0008D19A78D97801EB022189B22046FFF7A4
:105E1C00DDFE26E7702ADFD0902A3FF422AFC02A9D
:105E2C000AD1D0221A70E36900225A70E169022269
:105E3C00204601F070FC14E7D02A04BF002384F83C
:105E4C002C300EE7F7B504460F461646FFF79AFDC1
:105E5C00054610B3214601A8FFF773FC238C0133D0
:105E6C009BB2EBB12384238CE2691B0A5371E36967
:105E7C00228C9A71E269072339462046FFF766FDAA
:105E8C00E3691E54043883B2E26982212046FFF78D
:105E9C0021FD054601A8FFF75FFC284603B0F0BDC5
:105EAC000123DFE70022FFF7CDBF000010B5044B44
:105EBC0003600446C06A08B100F00EFF204610BD16
:105ECC0064900B0010B50446FFF7F0FF20465021FC
:105EDC00FEF7C3FA204610BD002910B54BDBB0F914
:105EEC000C408C4247DD002A45DBB0F90E40944251
:105EFC0041DD847E022C1FD0032C26D0012C04D132
:105F0C000489D24314440A4621B2012B23D0022B1C
:105F1C0032D083BB002A13460489C06AB8BFD31D94
:105F2C00DB1013FB041102F0070201239340425CC7
:105F3C0022EA030242541EE00489013C611A44899E
:105F4C00D243224409B212B2DFE74489013C641AFD
:105F5C00114622B2D9E7002A04891346B8BFD31DD3
:105F6C00DB1013FB0411C36A02F00700012282400C
:105F7C00585C02435A5410BD002A13460489C06A67
:105F8C00B8BFD31DDB1013FB041102F00702012371
:105F9C0003FA02F2435C5A40CCE7000070B50446A9
:105FAC001D460026FFF798F8114B2360666215B961
:105FBC0002F036F80546FF2384F8333084F8363087
:105FCC009DF9103084F837300A4BA363012384F811
:105FDC003C30059BA3644FF6FF72069BA286C4E976
:105FEC000A562664A4F84460E364204670BD00BFE2
:105FFC0064900B00B08B0B00F8B50446806A0D461C
:10600C0090B194F9301001F06FFBA06A0368002185
:10601C009B689847A06A036829469B689847A06AC2
:10602C00BDE8F84001F067BB94F93530014698B2F1
:10603C0001F06FFF606A20B12946BDE8F84000F01E
:10604C0065BF0826802794F9330005EA070180B262
:10605C0001F05FFF94F93400012180B201F059FF87
:10606C0094F93400002180B201F053FF013E4FEA55
:10607C005707E8D1F8BD38B50446806A0D4680B1A3
:10608C00A16C01F023FB002D204614BFA721A621F3
:10609C00FFF7B2FFA06A88B1E16CBDE8384001F0AF
:1060AC0015BB606A18B104F1380100F0C1FE94F917
:1060BC003600002180B201F02CFFE4E794F93600A1
:1060CC00012180B201F025FF606A18B1BDE83840AB
:1060DC0000F094BE38BD2DE9F8430446806A0D46A5
:1060EC008F1840B394F9301001F0FEFAA06A0368DF
:1060FC0000219B6898470126AF42A06A17D01F2E3B
:10610C000CD901F0F8FA94F93010A06A01F0ECFA0D
:10611C00A06A036800219B6898470126A06A15F8BD
:10612C00011B036801369B689847F6B2E4E7BDE8AB
:10613C00F84301F0E0BA94F93530014698B201F019
:10614C00E8FEBD4222D0606A15F8019B18B14946A1
:10615C0000F0DCFEF5E708264FF0800894F93300D8
:10616C0009EA080180B201F0D4FE94F9340001214F
:10617C0080B201F0CEFE94F93400002180B201F01F
:10618C00C8FE013E4FEA5808E8D1DAE7BDE8F883CB
:10619C00B0F90A30DA1D48BF03F10E02B0F908302D
:1061AC00C06AD2105A43002102F08AB82DE9FF418F
:1061BC001E46C36A9DF8288004460F461546C3B197
:1061CC002046FFF7E5FFB4F90A00B4F908102028BF
:1061DC0021DC202301222038CDE9013200EBD070E4
:1061EC0073237339009301EBD171894B40F34F0248
:1061FC0021E0B0F90A30D81D48BF03F10E00B4F904
:10620C000830C010584300F05FFDE0620028D7D181
:10621C0004B0BDE8F0814038C0F3C03202FA80F21D
:10622C0040230120CDE90130522352390093794BA0
:10623C0001EBD1715210204641F34F01FEF762FF82
:10624C00A06A84F83170002878D0002D74D1B4F98C
:10625C000A30202B0CBF3C253D2584F83050B8F17A
:10626C00000F01D001F036FAFEB194F93700002886
:10627C001BDB012180B201F03BFE94F937000121B8
:10628C0080B201F046FE012000F0B2FF94F9370015
:10629C00002180B201F03DFE0A2000F0A9FF94F924
:1062AC003700012180B201F034FEA06A002874D0BE
:1062BC00A16C01F00BFA042257492046FFF70BFFA3
:1062CC0061890139C9B22046FFF796FE5349042271
:1062DC002046FFF700FF94F93130012B0CBF102141
:1062EC0014212046FFF788FE04224D492046FFF773
:1062FC00F2FEA3684B4A93425CD14B4904222046E0
:10630C00FFF7E9FED9212046FFF776FE94F93130EC
:10631C00012B0CBF2221F1212046FFF76DFE2046F8
:10632C0042490622FFF7D7FEA06A002863D0E16C31
:10633C0001F0CCF901206BE76DB28EE794F93500D2
:10634C00012180B201F0D4FD94F93600012180B214
:10635C0001F0CEFD94F93600012180B201F0D9FD97
:10636C00656A3DB1B8F1000F3FF47EAF284600F0EE
:10637C0031FD79E794F93300012180B201F0B8FDC9
:10638C0094F93400012180B201F0B2FD94F934008B
:10639C00294680B201F0BDFD66E7606A18B104F1D0
:1063AC00380100F045FD94F93600002180B201F06F
:1063BC00B0FD80E71E4A93420ED11E4903222046AF
:1063CC00FFF789FE94F93130012B0CBF9F21CF21AF
:1063DC002046FFF711FE95E7174A934292D11749D1
:1063EC0003222046FFF777FE94F93130012B0CBFC6
:1063FC001021AF21ECE794F93600012180B201F0B5
:10640C0088FD606A002895D000F0F8FC92E700BF88
:10641C007C8E0B00BC8B0B00C4900B00C8900B0047
:10642C00CC900B0080002000D6900B00D0900B007D
:10643C0080004000DA900B0060001000DD900B0033
:10644C0070B5002ABDF810503DDBB0F90A409442FB
:10645C0039DD0029BEBF5B181BB20021B0F9084022
:10646C00CE18A642C4BF631A1BB2002B2BDDC06A28
:10647C00D61014FB0611014402F0070001228240E1
:10648C00012DD2B216D0022D0BD0E5B9D243D2B227
:10649C000B44994217D011F8010B104001F8010C74
:1064AC00F7E70B4499420ED011F8010B504001F85C
:1064BC00010CF7E70B44994205D011F8010B10437E
:1064CC0001F8010CF7E770BDF0B50029BDF81450C8
:1064DC0076DBB0F90860B14272DA002ABEBF9B18B5
:1064EC001BB20022B0F90A40D718A742C4BFA31AA6
:1064FC001BB2002B64DDC2F3C404C76A16FB04167E
:10650C0012F00702DBB207EB060423D0C2F108023B
:10651C00D2B22D4993423CBF4FF0FF0CA2EB030EBD
:10652C00895C3CBF4CFA0EFC0CEA0101012D07D032
:10653C00022D2ED04DB917F806C02CEA010103E04C
:10654C0017F806C041EA0C01B955934238D3B0F99B
:10655C0008100C449A1AD2B2072A0ED9022D1DD15A
:10656C0013462178C9432170083BB0F90810DBB2FF
:10657C00072B0C44F5D802F007020AB3134B012D7C
:10658C009B5C1AD0022D1CD0D5B9227822EA0303C9
:10659C0015E017F806C081EA0C01D5E7291E18BFD3
:1065AC0001214942C9B213462170083BB0F9086079
:1065BC00DBB2072B3444F7D8DDE722781343237082
:1065CC00F0BD22785340FAE7B4900B00BC900B005E
:1065DC0070B41446827EBDF80C60022A0DD0032ADA
:1065EC0018D0012A11D10289E443144424B2039631
:1065FC000A46214670BCFFF767BF42890589E44310
:10660C0019441444691A24B209B20396224670BC88
:10661C00FFF716BF45891944691A09B2E7E730B488
:10662C001446827EBDF80850022A0DD0032A18D0D9
:10663C00012A11D1E2180489A41A24B202950A463F
:10664C00214630BCFFF7FCBE0289C9431144E21855
:10665C004489A41A09B224B20295224630BCFFF731
:10666C0033BF4289C943114409B2E7E72DE9F84326
:10667C000446806A002842D0A16C01F027F84749F3
:10668C0005222046FFF727FD218901392046C9B292
:10669C00FFF7B2FCB4F90A30DE1D48BF03F10E0659
:1066AC00D4E90A052389F61013FB06F615FA86F6CB
:1066BC0000283AD094F9301001F016F8A06A03685B
:1066CC0040219B6898470127B542A06A24D01F2F10
:1066DC000CD901F010F894F93010A06A01F004F80C
:1066EC00A06A036840219B6898470127A06A15F8A7
:1066FC00011B036801379B689847FFB2E4E7606AA7
:10670C0018B104F1380100F093FB94F93600002124
:10671C0080B201F0FEFBB2E700F0EDFFA06A78B3A7
:10672C00E16CBDE8F84300F0D1BF94F935000121CC
:10673C0080B201F0EEFBAE42F0D0606A15F8019B1E
:10674C0018B1494600F0E2FBF5E708274FF0800846
:10675C0094F9330009EA080180B201F0DAFB94F9EC
:10676C003400012180B201F0D4FB94F934000021F3
:10677C0080B201F0CEFB013F4FEA5808E8D1DAE7CE
:10678C0094F93600012180B201F0C3FB606A18B1A4
:10679C00BDE8F84300F032BBBDE8F883E0900B0095
:1067AC0008B5024B1B689B68019308BD6802030087
:1067BC0008B5024B1B68DB68019308BD6802030037
:1067CC0008B5024B1B681B68019308BD2C02030023
:1067DC0008B5024B1B689B68019308BD2C02030093
:1067EC0008B5024B1B68DB68019308BD2C02030043
:1067FC0008B5024B1B681B69019308BD2C020300F2
:10680C0008B5024B1B685B69019308BD2C020300A1
:10681C0008B5024B1B685B69019308BD6C02030051
:10682C0008B5024B1B685B68019308BD1802030096
:10683C0008B5024B1B68DB68019308BD1802030006
:10684C0008B5024B1B681B69019308BD18020300B5
:10685C0008B5024B1B685B69019308BD1802030065
:10686C0008B5024B1B681B6B019308BD4802030063
:10687C0008B5024B1B685B6B019308BD4802030013
:10688C0008B5024B1B689B6B019308BD48020300C3
:10689C0008B5024B1B681B6C019308BD4802030032
:1068AC0008B5024B1B685B6C019308BD48020300E2
:1068BC0008B5024B1B685B69019308BD64020300B9
:1068CC0008B5024B1B681B6A019308BD64020300E8
:1068DC0008B5024B1B689B6A019308BD6402030058
:1068EC0008B5024B1B68DB68019308BD3C02030032
:1068FC0008B5024B1B681B69019308BD3C020300E1
:10690C0008B5024B1B685B69019308BD3C02030090
:10691C0008B5024B1B689B69019308BD3C02030040
:10692C0008B5024B1B68DB69019308BD3C020300F0
:10693C0008B5024B1B681B6A019308BD3C0203009F
:10694C0008B5024B1B689B6A019308BD3C0203000F
:10695C0008B5024B1B681B6C019308BD3C0203007D
:10696C0008B5024B1B681B68019308BD2802030085
:10697C0008B5024B1B68DB68019308BD28020300B5
:10698C0008B5024B1B689B69019308BD28020300E4
:10699C0008B5024B1B68DB69019308BD2802030094
:1069AC0008B5024B1B681B6A019308BD2802030043
:1069BC0008B5024B1B685B6A019308BD28020300F3
:1069CC0008B5024B1B689B6A019308BD28020300A3
:1069DC0008B5024B1B68DB6A019308BD2802030053
:1069EC0008B5024B1B681B6B019308BD2802030002
:1069FC0008B5024B1B685B6B019308BD28020300B2
:106A0C0008B5024B1B681B6C019308BD28020300E0
:106A1C0008B5024B1B689B69019308BD3802030043
:106A2C0008B5024B1B68DB69019308BD38020300F3
:106A3C0008B5024B1B681B6A019308BD38020300A2
:106A4C0008B5024B1B689B6A019308BD3802030012
:106A5C0008B5024B1B681B6B019308BD3802030081
:106A6C0008B5024B1B689B6B019308BD38020300F1
:106A7C0008B5024B1B681B68019308BD300203006C
:106A8C0008B5024B1B685B69019308BD300203001B
:106A9C0008B5024B1B68DB69019308BD300203008B
:106AAC0008B5024B1B681B6A019308BD300203003A
:106ABC0008B5024B1B685B6A019308BD30020300EA
:106ACC0008B5024B1B68DB6B019308BD3002030059
:106ADC0008B5024B1B681B6C019308BD3002030008
:106AEC0008B5024B1B685B6C019308BD30020300B8
:106AFC0008B5024B1B681B68019308BD4C020300D0
:106B0C0008B5024B1B685B68019308BD4C0203007F
:106B1C0008B5024B1B681B69019308BD4C020300AE
:106B2C0008B5024B1B685B69019308BD4C0203005E
:106B3C0008B5024B1B689B69019308BD4C0203000E
:106B4C0008B5024B1B68DB69019308BD4C020300BE
:106B5C0008B5024B1B681B6A019308BD4C0203006D
:106B6C0008B5024B1B689B6A019308BD4C020300DD
:106B7C0008B5024B1B685B6B019308BD60020300F8
:106B8C0008B5024B1B681B6D019308BD6002030026
:106B9C0008B5024B1B685B68019308BD200203001B
:106BAC0008B5024B1B685B69019308BD200203000A
:106BBC0008B5024B1B68DB6A019308BD2002030079
:106BCC0008B5034B1B68D3F88830019308BD00004F
:106BDC002002030008B5034B1B68D3F894300193D3
:106BEC0008BD00002002030008B5024B1B685B685F
:106BFC00019308BD4002030008B5024B1B689B685B
:106C0C00019308BD4002030008B5024B1B68DB680A
:106C1C00019308BD4002030008B5024B1B681B69B9
:106C2C00019308BD4002030008B5024B1B685B6969
:106C3C00019308BD4002030008B5024B1B689B6919
:106C4C00019308BD4002030008B5024B1B68DB69C9
:106C5C00019308BD4002030008B5024B1B681B6A78
:106C6C00019308BD4002030008B5024B1B681B6B67
:106C7C00019308BD4002030008B5024B1B685B6B17
:106C8C00019308BD4002030008B5024B1B681B6C46
:106C9C00019308BD4002030008B5024B1B685B6CF6
:106CAC00019308BD4002030008B5024B1B68DB6969
:106CBC00019308BD4402030008B5024B1B68DB6B53
:106CCC00019308BD4402030008B5024B1B681B6806
:106CDC00019308BD1C02030008B5024B1B685B68DE
:106CEC00019308BD1C02030008B5024B1B689B688E
:106CFC00019308BD1C02030008B5024B1B685B6ABC
:106D0C00019308BD1C02030008B5024B1B68DB6B2A
:106D1C00019308BD1C02030008B5024B1B681B6CD9
:106D2C00019308BD1C02030008B5024B1B685B6C89
:106D3C00019308BD1C020300002240681146FFF7B6
:106D4C008BBF002240681146FFF796BF40680022B7
:106D5C00FFF78ABF4068002281F00101FFF774BF82
:106D6C00002340681A461946FFF766BF00234068A7
:106D7C001A461946FFF758BF002240681146FFF724
:106D8C004BBF002240681146FFF736BF4068002217
:106D9C000221FFF739BF002340681A46FFF724BFD2
:106DAC00024B03225A60024A1A607047C8E603205D
:106DBC00F0900B000021FFF793BE0021FFF788BE77
:106DCC0010B5044608462170FFF762FE002363608D
:106DDC00204610BD13B504460078FFF7EEFF58B9F6
:106DEC00207801904FF6FF71FFF742FE019802B038
:106DFC00BDE81040FFF7DEBF02B010BD0078FFF712
:106E0C00D9BF0000400830B51860002418688842CB
:106E1C00E5B206D90134082C02D040081860F5E719
:106E2C000725024B5B5D137030BD00BF24910B0036
:106E3C002DE9F04306468FB000780C46FFF7BDFFF6
:106E4C0000281BDB35781422002109A801F038FA40
:106E5C000B23002209A92846ADF82430FFF728FEA1
:106E6C009DF82D3013B19DF82C5055B10027B94623
:106E7C00B846012523795DB1C3B100200FB0BDE840
:106E8C00F083DDF830809DF834909DF83570F1E793
:106E9C00002B35D1A368434508D18DF820908DF88F
:106EAC002170BDF82020A3899A42E6D00023A16866
:106EBC008DF80F300A9804AB0DF10F02FFF7A2FF0B
:106ECC00217985B989B9A36843450ED38DF82090F3
:106EDC008DF82170BDF82020A3899A4205D1049B1E
:106EEC00434502D1C9E70029F9D100230193637B03
:106EFC0000939DF80F20237B3078FFF7E1FDBCE772
:106F0C00CDE900552B462A460121F5E708B5007856
:106F1C00FFF7B6FDC0B208BD054B02221A60054B47
:106F2C00054A9A600020C3E90000FFF731BE00BF9C
:106F3C00DCE60320D0E603200000FFFF10B504467A
:106F4C000068FFF7C9FE204610BD10B50446006866
:106F5C0008B1FFF7C1FE0023C4E90133236010BD63
:106F6C0038B504460D4600680131FFF7BDFE10B17F
:106F7C00C4E90005012038BD10B50368044623B1EF
:106F8C0043688B4201D3012010BD2046FFF7E8FF78
:106F9C000028F9D0A368002BF5D122681370F2E712
:106FAC0037B50D46114601920446FFF7E5FF019AED
:106FBC0028B92046FFF7C9FF204603B030BDA260B8
:106FCC002946206801F06EF92268A3680021D1548B
:106FDC00F2E7002313B5C0E9003304468360037362
:106FEC0041B108460191FDF7EFF90199024620469F
:106FFC00FFF7D6FF204602B010BD13B5044659B1B9
:10700C0008460191FDF7E0F9019902462046FFF789
:10701C00C7FF204602B010BDFFF797FFF9E710B588
:10702C004368013B0446436063B903689B68984717
:10703C00A368013BA3602BB923682046DB68BDE83D
:10704C001040184710BD0000024800230360FFF7F2
:10705C0027BC00BFE0E60320F8B506460D468F18A6
:10706C000024BD420CD0336815F8011B9B683046D8
:10707C009847031E01DB1C44F3E7002C08BF1C4699
:10708C002046F8BD13B50446084659B10191FDF7E9
:10709C009BF923680199DB680246204602B0BDE8E3
:1070AC001040184702B010BD08B5FFF7EBFF08BD44
:1070BC0003689B68184738B50D210546FFF7F8FFA4
:1070CC000A2104462846FFF7F3FF204438BD30B5AB
:1070DC008BB00023012A8DF8243098BF0A2209AC0A
:1070EC000D46B1FBF2F101FB125303F0FF03092B28
:1070FC0094BF30333733DBB2AA4204F8013DEFD9E9
:10710C002146FFF7BFFF0BB030BD2DE9F04393B024
:10711C0000219DF868908DF84410B9F1010F0546D7
:10712C0098BF4FF00A0911AE174698464A460023FD
:10713C0038464146FCF7BCFF0B4609FB107101F0C9
:10714C00FF01092994BF30313731C9B24F4506F8D8
:10715C00011D78F100010246E6D231462846FFF7C0
:10716C0091FF13B0BDE8F0832DE9F04186B000AF7C
:10717C0005460E46381D142114463B60FFF7BCFD36
:10718C0013280ED8391D2846FFF77CFF04461EB184
:10719C002846FFF790FF044420461837BD46BDE84B
:1071AC00F08100F1080323F00703E846ADEB030D73
:1071BC002246411C3B686846FFF79EFD69462846FF
:1071CC00FFF760FF0446C546E1E70000014B024AA9
:1071DC001A607047E4E6032034910B00024B1A68E6
:1071EC00024B1A60704700BFE0E40320E8E603207E
:1071FC000021FFF7D5BC000010B5044B036004461A
:10720C00806908B1FFF70BFF204610BD2C920B00D4
:10721C0010B50446FFF7F0FF20461C21FDF71DF9C1
:10722C00204610BD014B00229A607047ECE603200B
:10723C00014B1860704700BFE4E4032008B50B4B0A
:10724C0043B100F081F903681B699847002801DD00
:10725C00AFF30080064B43B100F0A2FE03681B693C
:10726C009847002801DDAFF3008008BD0000000046
:10727C000000000008B5FFF7E1FFFFF7E9FA014B4A
:10728C00186008BD44E703200548064A064908B5BE
:10729C00121A01F007F8054B054A1A6008BD00BF29
:1072AC0000F4032004F4032044960B0000F40320A4
:1072BC001E1C279A07B5002300931A466FF077011E
:1072CC00FFF788FC03B05DF804FB000007B54388AA
:1072DC000A2B08D0502B0BD1094B1B684BB103B0B8
:1072EC005DF804EB1847FFF7E5FF03B05DF804FB0E
:1072FC00002300931A466FF07701FFF76BFCF4E75D
:10730C0000E7032010B512480021FFF70DFD114BCB
:10731C001A68114B9A42114B0CBF012200221A70B1
:10732C0001D0FFF7B1FFFFF77BFA044600F0D0FF66
:10733C000B4B13B12046AFF3008000210848FFF738
:10734C00BBFCBDE8104007480021FFF739BC00BF6B
:10735C003D720B0000F403201E1C279AFCE6032050
:10736C0000000000D9720B00704710B518210446BC
:10737C00FDF773F8204610BDF0B5037D062B8DB0DC
:10738C000E4600F104074FF0000412D000F108057E
:10739C0015F8011D0A223046FFF799FEAF4204444E
:1073AC0019D0002CF4D02E213046FFF781FE044476
:1073BC00EEE72F236A4639460A208DF80040FFF786
:1073CC0077FA6846FDF700F833680246DB686946D1
:1073DC0030469847044620460DB0F0BD10B5054B1D
:1073EC000446112240F8043B002100F069FF2046BE
:1073FC0010BD00BF5C910B000346074A10B543F863
:10740C00042B01F1100251F8044B43F8044B914248
:10741C00F9D10A781A7010BD5C910B00037D042B16
:10742C0004D14068003818BF01207047062B07D1E3
:10743C0043683BB983682BB9C3681BB90069F1E792
:10744C00002070470120704710B59DF8084044EAB1
:10745C00032343EA024242EA0161042341600375BB
:10746C0010BD000007B5064B0360CB7800938B78FA
:10747C004A780978FFF7E8FF03B05DF804FB00BF1A
:10748C005C910B00417470477047704708B5002140
:10749C00007CFFF74DFB40EAE07008BD08B5012108
:1074AC00007CFFF745FB40EAE07008BD08B5007CA6
:1074BC00FFF736FB20EAE07008BD08B5007CFFF74B
:1074CC0027FB20EAE07008BD13B50446007C01914F
:1074DC00FFF726FB0028019901DC607C20B1207CA1
:1074EC00FFF72EFB20EAE07002B010BD007CFFF726
:1074FC002FBB10B514210446FCF7AFFF204610BD7E
:10750C0010B54FF47A73044608460021C4E9011300
:10751C00044B23600123207463741146FFF7E8FACF
:10752C00204610BD70910B00007C0022FFF7E8BADA
:10753C00007CFFF715BB10B514220446002100F0A7
:10754C00BFFE204610BD000010B50F4C88B003A83C
:10755C00FFF7F1FF2178BFF35B8F11F001010FD121
:10756C0020460191FCF788FF019948B103AA07480E
:10757C00FFF7C6FF2046FCF784FF054800F088FEA5
:10758C00024808B010BD00BF04E7032008E7032041
:10759C0095740B0070474174704708B5007CFFF779
:1075AC00CFF920EAE07008BD08B5007CFFF7A0F920
:1075BC0020EAE07008BD08B5007CFFF7A9F940EAA5
:1075CC00E07008BD08B5007CFFF79AF940EAE0705E
:1075DC0008BD007CFFF7A4B937B5457C04462DB136
:1075EC00207C03B0BDE83040FFF77AB9007C0191F4
:1075FC00FFF7A6F900280199F2DC284603B030BD4C
:10760C0010B514210446FCF728FF204610BD0000DD
:10761C0010B54FF47A730446084611460022C4E9AB
:10762C000123044B2360012320746374FFF790F94A
:10763C00204610BDA0910B007047F8B506461546C4
:10764C000C468F18BC4206D0336814F8011B9B689B
:10765C0030469847F6E72846F8BD007C0022FFF735
:10766C009FB9007C0021FFF7A3B9007C0021FFF734
:10767C00A7B9007C0021FFF7ABB9007C0021FFF714
:10768C00AFB910B514210446FCF7E7FE204610BD37
:10769C0038B5044615464FF47A730022C4E9012329
:1076AC00094B2174084623602946FFF7A9F9BF301E
:1076BC0008D16B69DB0705D56868FFF70DFBE86837
:1076CC00FFF70AFB204638BDD0910B00007C00224E
:1076DC00FFF746B90023007C1A461946FFF748B954
:1076EC00007C0022FFF74CB9C9B2FFF7F9BF007C50
:1076FC000022FFF74DB90121FFF7F9BF13B503685D
:10770C008DF80710DC6B01224FF0FF330DF10701F0
:10771C00A04702B010BD10B40368DC6B4FF0FF3310
:10772C00A4465DF8044B604713B5134602688DF808
:10773C000710D46B0DF107010122A04702B010BD58
:10774C0010B54369B3F88620B3F884309A420446E6
:10775C0008D06369B3F88420511CA3F88410134437
:10776C00187910BD03681B6998470028F1D14FF0B8
:10777C00FF30F6E7704743691868C043C00F704785
:10778C0070470000064B994210B500F10C0405D06F
:10779C00084600F06BFC002808BF0024204610BDF2
:1077AC002C910B0010B5AC210446FCF756FE20467C
:1077BC0010BDAC21FCF751BE2DE9F0414FF0000893
:1077CC0086B01C46C0F8048005460E461746414656
:1077DC00102202A800F074FD631C09D04FF47A73D8
:1077EC00B4FBF3F203FB1244CDE902285C4304948E
:1077FC00686910230093006802AB41F2050240F661
:10780C00FF71FFF705F9002807DAFFF77DFA036827
:10781C006B60002006B0BDE8F08168690023006849
:10782C003A463146FFF714F9031EEEDB1846F1E732
:10783C0030B587B0044601AD6846FFF713FE0FCD97
:10784C0004340FC42B68237007B030BD70B54D697C
:10785C00054B04468C3544F8043B06460FCD0FC44B
:10786C002B682370304670BD5C910B002DE9F04302
:10787C009846036893B00D460024DB6A064617460B
:10788C00984728466B46224621460094FEF790FF07
:10789C000546002863D1009B002B4BD05B69002B65
:1078AC0048D006A8FFF79AFD009B5C696378022B11
:1078BC0004D1211D06A8FFF7BBFF26E00A2B24D11B
:1078CC001122294601A800F0FBFCA368002B38D03C
:1078DC0004F108030DF1040C183418685968624659
:1078EC0003C20833A3429446F7D1062301A90CA87E
:1078FC008DF81430FFF780FD0DF1340CBCE80F004F
:10790C0007AC0FC4DCF80030237006A8FFF786FD27
:10791C0080B1336807ADD3F82090124B0C930FCD88
:10792C000DAC0FC42B6823703A4643460CA9304665
:10793C00C84705460098FEF733FF284613B0BDE84C
:10794C00F083E368002BC3D14FF6FF70D4F810908E
:10795C00FEF7B6FF8145BBD104F11401AAE7254619
:10796C00E8E700BF5C910B0038B543691A68002A40
:10797C00054610DAB3F88620B3F884309A420AD15F
:10798C0003681B699847044628B92B682846DB6AAC
:10799C009847204638BD0120FCE710B54369B3F881
:1079AC008620B3F884309A42044605D06369B3F854
:1079BC0084201344187910BD03681B69984700286C
:1079CC00F4D14FF0FF30F6E7F8B543691746B3F83A
:1079DC008620B3F884309A4205460E4616D0696963
:1079EC00B1F88430B1F88640E41ABC4228BF3C465A
:1079FC00043322461944304600F054FC6A69B2F84C
:107A0C0084302344A2F884302046F8BD03681B69F7
:107A1C0098470028E3D14FF0FF34F5E74269002383
:107A2C00A2F884304269A2F8863070472DE9F04103
:107A3C001F4603680C46DB6A8AB005461646984713
:107A4C00237DD5F81480042B0CBF02200A200622BB
:107A5C000121FFF705F8C8F800006B691B68002BC3
:107A6C0008DA2B682846DB6A0024984720460AB0BF
:107A7C00BDE8F0812846FFF7D1FFB7B1002303A979
:107A8C00F8B20393ADF81030FEF7C2FE0028E8D12F
:107A9C00686906230093006803AB41F20B0240F6C1
:107AAC00FF71FEF7B5FF0028DBD11C22002103A8D3
:107ABC0000F006FC237D042B1DD14FF407733046D8
:107ACC00ADF80C30FEF704FFADF80E006068FEF761
:107ADC00F7FE04906B691C22186803A9FEF7A8FF37
:107AEC000028BED104340FCC6D698C350FC52368CA
:107AFC002B700124BAE740F61C233046ADF80C304D
:107B0C00FEF7E6FE05AEADF80E00231D04F11407DA
:107B1C0018685968324603C20833BB421646F7D17F
:107B2C00D8E7000030B54269B2F886308BB0044615
:107B3C002BB1B2F884209A4201D1FFF76FFF616933
:107B4C000868002818DBB1F886507F2D14D8043152
:107B5C000823C5F180022944FEF772FF002813DDCB
:107B6C006369B3F886200AB9A3F884206369B3F873
:107B7C0086201044A3F886006369B3F88600B3F836
:107B8C008430C01A0BB030BDFFF7BEF803680B2B66
:107B9C00F2D0FFF7B9F803680B2BEDD020230025AA
:107BAC00CDE90235FFF7B0F803680193084B09499A
:107BBC00009302AA2B463220FEF7E2FF6369186895
:107BCC00FEF72EFF63694FF0FF321A60D4E700BF57
:107BDC00F7910B00F0910B0010B54369044618683F
:107BEC00002801DBFEF71CFF63694FF0FF321A60BF
:107BFC006069112200218C3000F062FB2046BDE848
:107C0C001040FFF70BBF10B5002304460160C0F80D
:107C1C0084308830FFF7E2FB204610BD73B500239B
:107C2C004FF47A72C0E901320E4A0361026043617B
:107C3C000446AC200191FCF70AFC051E05F10C066C
:107C4C0008D00123C5E90133074B01992B6030465D
:107C5C00FFF7D9FF2046C4E90565FFF7DFFE02B048
:107C6C0070BD00BF2C920B0010920B0010B54FF0A2
:107C7C00FF310446FFF7D2FF204610BD10B5044675
:107C8C000068002801DBFEF7CBFE204610BD0C304F
:107C9C00FFF7F4BF002240681146FEF7BDBF00227B
:107CAC0040681146FEF7D8BF002240681146FEF727
:107CBC00E3BF40680022FEF7D7BF4068002281F086
:107CCC000101FEF7C1BF002340681A461946FEF7B2
:107CDC00B3BF002340681A461946FEF7A5BF002221
:107CEC0040681146FEF788BF406800220221FEF76B
:107CFC008BBF002340681A46FEF776BF024B042266
:107D0C005A60024A1A6070471CE7032078920B00F5
:107D1C00002340681A46FEF767BF40680022022124
:107D2C00FEF772BF002240681146FEF765BF0022C5
:107D3C0040681146FEF770BF002340681A4619468A
:107D4C00FEF772BF002340681A461946FEF774BF4F
:107D5C0040680021FEF798BF40680021FEF79CBFE9
:107D6C004068002281F00101FEF76EBF40680022DE
:107D7C00FEF77ABF002240681146FEF77DBF002255
:107D8C0040681146FEF768BF2DE9F04395B01446E4
:107D9C000D460746FFF722FB00211C220DA800917F
:107DAC0000F08EFA40230C9320466B460CAA00215F
:107DBC00FEF7FEFC044600284BD102460121686800
:107DCC00FEF72AFF0221804622466868FEF724FF50
:107DDC00009E81462146002E3BD0002939D1736884
:107DEC00022B03D00A2B11D0F669F4E7B8F1000F7F
:107DFC00FAD0716906A8043107ADFFF733FB0FCD3C
:107E0C003C1D0FC42B6823704146EDE7B9F1000F00
:107E1C00EAD07469102201A800F052FA06238DF8FA
:107E2C00143001AD04F108031834186859682A4657
:107E3C0003C20833A3421546F7D101A906A807AD22
:107E4C00FFF7DAFA0FCD3C1D0FC42B68237049469F
:107E5C00CAE70098FEF7A4FC384615B0BDE8F083DD
:107E6C00024B034A1A6000225A60704724E7032031
:107E7C00B4920B00232813B502D9002002B010BD18
:107E8C00A0F10B03022B1AD8174C2178BFF35B8F90
:107E9C0011F001010BD120460191FCF7EDFA01998B
:107EAC0028B11248FEF78CFF2046FCF7EAFA0F4B7C
:107EBC001878FEF7F5FD0028DFD10120DEE7012858
:107ECC0009D800F0ADF80021007CFEF791FD80F0A0
:107EDC000100C0B2D2E709380128EED800F060F8F2
:107EEC00007CFEF725FDF2E7BCE60320C0E603208C
:107EFC00232838B504460D460AD8FF2908D0FFF7C9
:107F0C00B9FF28B129462046BDE83840FEF760BCD1
:107F1C0038BD38B504460D46FEF762FCFF2810D07C
:107F2C00062804D84D2323FA00F0C30709D42046B1
:107F3C00FFF7A0FF28B129462046BDE83840FEF7E0
:107F4C0057BC38BD10B50446FEF74AFC031FDBB224
:107F5C00012B08D92046FFF78DFF20B12046BDE844
:107F6C001040FEF74DBC002010BD704738B50446DC
:107F7C0014252A46002100F0A3F925804025074945
:107F8C0025812846258200F06FF804496060284658
:107F9C0000F06AF8E060204638BD00BFE8920B00A4
:107FAC0030B50E4D2978BFF35B8F11F0010487B00B
:107FBC0011D12846FCF760FA68B101A8FFF7D6FF8B
:107FCC0001AA21460648FFF723FB2846FCF759FA7D
:107FDC00044800F05DF9024807B030BD2CE70320DF
:107FEC0030E70320777F0B007047000038B50A4B51
:107FFC0003600123044643610849202000F034F853
:10800C00202560600549A560284600F02DF8C4E9DC
:10801C000305204638BD00BF18000100E8920B0094
:10802C0030B50E4D2978BFF35B8F11F0010487B08A
:10803C0011D12846FCF720FA68B16846FFF7D6FF45
:10804C006A4621460648FFF723FB2846FCF719FA37
:10805C00044800F01DF9024807B030BD48E7032082
:10806C004CE70320F57F0B00FCF7F3B9014900F056
:10807C00F9B800BF04930B007FB500241023CDE9A1
:10808C000234036815469E6912686B46CDE90044BC
:10809C00B0479DF8043003F00603062B03BF009B8A
:1080AC002B600120204604B070BD0098904214BF94
:1080BC00012006207047000010B5034B03600446F6
:1080CC0000F0CDF8204610BD44930B0010B50446CB
:1080DC00FFF7F2FF20460821FCF7BFF9204610BD40
:1080EC002DE9F0411F46DDE90834DDF8188098458C
:1080FC000646154607D1079900F0B4F818B165711A
:10810C000020BDE8F0813946304600F0ABF800287D
:10811C00F6D00123C4F800802571A371F0E738B5BF
:10812C0015461C4600F09EF820B10823E360062398
:10813C002560237138BD73B505460C4601921E4669
:10814C0000F090F850B9032E08D82368019A5B69A7
:10815C002946204602B0BDE87040184702B070BDF9
:10816C0010B5034B03600446FFF7A6FF204610BD75
:10817C00A4930B0010B50446FFF7F2FF20460C2128
:10818C00FCF76BF9204610BDF7B5089F97420546E2
:10819C000E4614460AD0A86802680897156A31463C
:1081AC002246AC4603B0BDE8F04060471946019347
:1081BC0000F058F8019B0028EDD0062003B0F0BD6C
:1081CC002DE9F14F0D461946DDE90A4BDDE90CA608
:1081DC0081461746984600F045F890B1002D346062
:1081EC00377109DB61198A450CBF06210121B17178
:1081FC00002001B0BDE8F08F0235F9D10123B37135
:10820C00F6E7544506D15946484600F02BF808B11C
:10821C007771EDE7D9F808000368CDE90CA6CDE934
:10822C000A4BDC693A4643462946A44601B0BDE8F0
:10823C00F04F60472DE9F04107460C4615461E46A7
:10824C00FFF76DFF48B9B86803689F692A46334643
:10825C002146BC46BDE8F0416047BDE8F08170475F
:10826C0000207047814208B50ED0406803782A2B55
:10827C000CD049680B782A2B08BF0131FCF79AF80F
:10828C00B0FA80F0400908BD0120FCE70020FAE7B5
:10829C00002301461A46184600F0E8B80A220021CD
:1082AC0000F0DAB80A44914200F1FF3300D1704774
:1082BC0010B511F8014B03F8014F9142F9D110BDE3
:1082CC0002440346934200D1704703F8011BF9E7BF
:1082DC0038B5104B1D68AB6B0446B3B91820FEF7CC
:1082EC00F3FC0246A86320B90B4B0C484221FEF765
:1082FC0013FD0B490B4BC0E900130B4B83600B2395
:10830C00838100210120C2E90401AB6B00221C61B6
:10831C005A6138BDE4E40320DD930B00F4930B00A9
:10832C000E33CDAB34126DE6ECDE05002DE9F04FCB
:10833C0085B088460192474A03901E460D462B464F
:10834C0015F8014BA75C17F00807F8D12D2C47D175
:10835C002C7801279D1C002E77D0102E09D1302CA3
:10836C0007D12B7803F0DF03582B69D16C781026DA
:10837C00023507F1004A07F1FF3B0AF1FF3A4FEAD9
:10838C00E67932464B4658465146FBF791FE0023A0
:10839C0002928C46024619461846A4F1300EBEF1E4
:1083AC00090F22D87446A64230DDB3F1FF3F14D03A
:1083BC0082427CEB010326D38C4508BF824202D15A
:1083CC00029BA3421FDB714300FB0911A6FB0003B8
:1083DC001944201841EBE471012315F8014BDCE73B
:1083EC002B2C04BF2C789D1CB5E7A4F1410EBEF1DB
:1083FC00190F01D8373CD6E7A4F1610EBEF1190F65
:10840C0004D8573CCFE74FF0FF33E6E75A1C09D1AD
:10841C00039A22231360019B5846514653B905B069
:10842C00BDE8F08F17B1404261EB4101019A002A7F
:10843C00F5D00BB105F1FF38019BC3F80080EEE7D6
:10844C003024002E95D1082693E7302C89D00A26AB
:10845C008FE700BF72940B0013460A460146024890
:10846C000068FFF763BF00BFE4E403202DE9F84385
:10847C00DFF8B8800646D8F800001F460D46914636
:10848C0000F056F8254B1C6834B9254C1C60254B64
:10849C0013B11B68C4F8883063681F2B07DDD8F84C
:1084AC00000000F047F84FF0FF30BDE8F8834EB302
:1084BC00D4F8880088B91C4B23B9D8F8000000F018
:1084CC0038F8F0E74FF48470FEF7FEFB0028F4D088
:1084DC000023C0E94033C4F88800636840F8239057
:1084EC0001229A4000EB8301D0F800311343C0F80D
:1084FC000031022EC1F8807002BFD0F80431134352
:10850C00C0F804316368D8F800005A1C023362606A
:10851C0044F8235000F00EF80020C6E7ECE70320E7
:10852C0060E7032000000000D56C0B0048E5032039
:10853C00704770477047000000044D5154540400BC
:10854C00064D514973647003E5430B0021440B0045
:10855C0049440B004D440B000000000043616C6C5F
:10856C00206F6E2070757265207669727475616CFF
:10857C00004D5154543A2000676573747572654C04
:10858C00616D70006C61622E74686577636C2E632C
:10859C006F6D00002C01000018000000F4010000B9
:1085AC002C0100005000000064656661756C74203D
:1085BC00004D5342004C5342003C53504953657498
:1085CC0074696E67732064656661756C743E003CFB
:1085DC0053504953657474696E6773202573257500
:1085EC00202573204D4F444525753E0000000000AA
:1085FC00003E5B4F5B3E3E6B4F6B3E1C3E7C3E1C1D
:10860C00183C7E3C181C577D571C1C5E7F5E1C0062
:10861C00183C1800FFE7C3E7FF0018241800FFE719
:10862C00DBE7FF30483A060E2629792926407F05DC
:10863C000507407F05253F5A3CE73C5A7F3E1C1CF2
:10864C0008081C1C3E7F14227F22145F5F005F5FB2
:10865C0006097F017F006689956A6060606060949E
:10866C00A2FFA29408047E040810207E20100808A3
:10867C002A1C08081C2A08081E101010100C1E0CAE
:10868C001E0C30383E3830060E3E0E060000000040
:10869C000000005F00000007000700147F147F1427
:1086AC00242A7F2A1223130864623649562050006C
:1086BC0008070300001C2241000041221C002A1C58
:1086CC007F1C2A08083E0808008070300008080843
:1086DC000808000060600020100804023E51494563
:1086EC003E00427F400072494949462141494D3381
:1086FC001814127F1027454545393C4A49493141E8
:10870C00211109073649494936464949291E0000B5
:10871C00140000004034000000081422411414140A
:10872C001414004122140802015909063E415D59F6
:10873C004E7C1211127C7F494949363E41414122FF
:10874C007F4141413E7F494949417F090909013E29
:10875C00414151737F0808087F00417F4100204050
:10876C00413F017F081422417F404040407F021C62
:10877C00027F7F0408107F3E4141413E7F09090979
:10878C00063E4151215E7F09192946264949493245
:10879C0003017F01033F4040403F1F2040201F3F0B
:1087AC004038403F63140814630304780403615990
:1087BC00494D43007F4141410204081020004141D2
:1087CC00417F04020102044040404040000307087E
:1087DC000020545478407F2844443838444444287A
:1087EC00384444287F385454541800087E09021821
:1087FC00A4A49C787F0804047800447D40002040A9
:10880C00403D007F1028440000417F40007C0478EC
:10881C0004787C080404783844444438FC18242434
:10882C001818242418FC7C080404084854545424B4
:10883C0004043F44243C4040207C1C2040201C3C31
:10884C004030403C44281028444C9090907C446428
:10885C00544C4400083641000000770000004136BB
:10886C00080002010204023C2623263C1EA1A16141
:10887C00123A4040207A3854545559215555794173
:10888C002254547842215554784020545579400C48
:10889C001E5272123955555559395454545939552B
:1088AC005454580000457C410002457D420001456E
:1088BC007C407D1211127DF0282528F07C54554502
:1088CC00002054547C547C0A097F4932494949326E
:1088DC003A4444443A324A4848303A4141217A3A7F
:1088EC0042402078009DA0A07D3D4242423D3D404B
:1088FC0040403D3C24FF2424487E4943662B2FFCFA
:10890C002F2BFF0929F620C0887E090320545479A7
:10891C00410000447D413048484A32384040227A78
:10892C00007A0A0A727D0D19317D2629292F2826F5
:10893C002929292630484D402038080808080808FD
:10894C000808382F10C8ACBA2F102834FA00007B56
:10895C00000008142A142222142A14085500550069
:10896C0055AA55AA55AAFF55FF55FF000000FF0058
:10897C00101010FF00141414FF001010FF00FF1053
:10898C0010F010F0141414FC001414F700FF000085
:10899C00FF00FF1414F404FC141417101F10101F04
:1089AC00101F1414141F00101010F0000000001FF2
:1089BC00101010101F10101010F010000000FF10FD
:1089CC001010101010101010FF10000000FF1400F9
:1089DC0000FF00FF00001F10170000FC04F414142B
:1089EC001710171414F404F40000FF00F7141414F7
:1089FC0014141414F700F7141414171410101F1077
:108A0C001F141414F4141010F010F000001F101F99
:108A1C000000001F14000000FC140000F010F01007
:108A2C0010FF10FF141414FF141010101F0000007E
:108A3C0000F010FFFFFFFFFFF0F0F0F0F0FFFFFF82
:108A4C000000000000FFFF0F0F0F0F0F38444438D9
:108A5C0044FC4A4A4A347E02020606027E027E0228
:108A6C0063554941633844443C04407E201E200633
:108A7C00027E020299A5E7A5991C2A492A1C4C7270
:108A8C0001724C304A4D4D303048784830BC625AF7
:108A9C00463D3E494949007E0101017E2A2A2A2A87
:108AAC002A44445F444440514A444040444A514063
:108ABC000000FF0103E080FF000008086B6B083624
:108ACC0012362436060F090F060000181800000095
:108ADC001010003040FF0101001F01011E00191D84
:108AEC001712003C3C3C3C00000000000000000061
:108AFC0000000000000000000000000095540B0076
:108B0C0065700B006D440B009B4E0B009D4E0B00D3
:108B1C00CF4E0B00AB4E0B00BD4E0B00DD4D0B00D2
:108B2C009B4E0B00C7500B00C5500B00E74E0B00C3
:108B3C00254F0B005F4F0B00A54F0B00C14F0B00D7
:108B4C0045500B00000000000000000099550B0080
:108B5C00B9550B0095540B0065700B00E55E0B00CE
:108B6C009B4E0B009D4E0B00CF4E0B00AB4E0B00E3
:108B7C00BD4E0B00DD4D0B009B4E0B00C7500B0088
:108B8C0083600B002B660B00DD650B005F4F0B0049
:108B9C00A54F0B00C14F0B0045500B00000000000F
:108BAC0000000000894D0B005D4D0B005F4D0B006C
:108BBC000000000000018000000000000000000028
:108BCC00038000000000000000000007C00000004F
:108BDC0000000000000007C00000000000000000C2
:108BEC00000FC00000000000000000001FE00000AB
:108BFC00000000000000001FE0000000000000006A
:108C0C0000003FE00000000000000000003FF0000A
:108C1C0000000000000000007FF0000000000000D9
:108C2C00001FF87FF0000000000000003FFE7FF006
:108C3C00000000000000003FFF7FF000000000007B
:108C4C0000001FFFFBE0000000000000000FFFF918
:108C5C00FFC00000000000000FFFF9FFF80000004B
:108C6C0000000007FFF1FFFF00000000000003FC04
:108C7C0073FFFF80000000000001FE3FFFFF80003B
:108C8C000000000000FF1E0FFF00000000000000AD
:108C9C007FFE1FFC000000000000003FFFFFF800FB
:108CAC000000000000000FDFFFE0000000000000EB
:108CBC00001F19FFC0000000000000003F3CFF0037
:108CCC00000000000000007E7CF8000000000000A6
:108CDC0000007FFE7C0000000000000000FFFFFC95
:108CEC000000000000000000FFFFFE00000000007C
:108CFC00000000FFFFFE0000000000000001FFEF7D
:108D0C00FE0000000000000001FFCFFE000000008C
:108D1C0000000003FF07FE0000000000000003FC41
:108D2C0007FE0000000000000003F003FE0000003E
:108D3C0000000000018000FE0000000000000000A8
:108D4C0000007E000000000000000000003E00005B
:108D5C0000000000000000000C00000000000007F4
:108D6C008000FC000003C0000000078001FC000034
:108D7C0003C0000000078001FC000003C0000000DD
:108D8C00078001E00000001E000000078001E000E9
:108D9C0000001E007FE3F79FF9FDE7787BDFC0FF43
:108DAC00F7FFBFFDFDFF787BDFC0FFF7FFBFFDFDC9
:108DBC00FF787BDFC0F0F787BC3DE1FF787BDE00FE
:108DCC00F0F787BC3DE1F0787BDE0000F787803D53
:108DDC00E1E0787BDE007FF7879FFDE1E0787BDECA
:108DEC0000FFF787BFFDE1E0787BDE00F0F787BC82
:108DFC003DE1E0787BDE00F0F787BC3DE1E0787B7D
:108E0C00DE00F0F787BC3DE1E0787BDE00FFF7FF8A
:108E1C00BFFDE1E07FFBDFC0FFF7FFBFFDE1E07FBF
:108E2C00FBDFC07CF3F39F3DE1E03E7BCFC0000055
:108E3C00000000000000000000FFFFFFFFFFFFFF2D
:108E4C00FFFFFFC0FFFFFFFFFD68DB111A31C0FF02
:108E5C00FFFFFFFD2B5AFB6AEFC0FFFFFFFFFD4B2F
:108E6C005B3B1A33C0FFFFFFFFFD6B5BDB6AFDC092
:108E7C000000600000000000000000000000000086
:108E8C0000E00000000000000000000000000001F5
:108E9C00E00000000000000000000000000001F0F5
:108EAC000000000000000000000000000003F000C3
:108EBC0000000000000000000000000007F00000AF
:108ECC00000000000000000000000007F800000097
:108EDC00000000000000000000000FF8000000037C
:108EEC00C0007E000001E0007F0FF800000003C00E
:108EFC0000FE000001E000FFEFF800000003C000DE
:108F0C00FE000001E000FFFFF800000003C000F0CD
:108F1C000000000F007FFE7FC0000003C000F000C7
:108F2C0000000F003FFE7FF83FF1FBCFFCFEF3BCCF
:108F3C003DEFE01FFE7FFF7FFBFFDFFEFEFFBC3D32
:108F4C00EFE01FC6FFFF7FFBFFDFFEFEFFBC3DEF28
:108F5C00E00FE3C7FE787BC3DE1EF0FFBC3DEF00E5
:108F6C0007FF87FC787BC3DE1EF0F83C3DEF000169
:108F7C00FFFFF0007BC3C01EF0F03C3DEF0001F39F
:108F8C007FE03FFBC3CFFEF0F03C3DEF0003E33F3F
:108F9C00807FFBC3DFFEF0F03C3DEF0007E73C00B9
:108FAC00787BC3DE1EF0F03C3DEF0007FFBE00787F
:108FBC007BC3DE1EF0F03C3DEF0007FFFE00787B2C
:108FCC00C3DE1EF0F03C3DEF000FFFFE007FFBFF09
:108FDC00DFFEF0F03FFDEFE00FFFFF007FFBFFDF58
:108FEC00FEF0F03FFDEFE00FF9FF003E79F9CF9E68
:108FFC00F0F01F3DE7E01FF1FF0000000000000053
:10900C0000000000001F80FF007FFFFFFFFFFFFF3D
:10901C00FFFFFFE01C007F007FFFFFFFFEB46D88A9
:10902C008D18E000001F007FFFFFFFFE95AD7DB5A2
:10903C0077E000000F007FFFFFFFFEA5AD9D8D19AF
:10904C00E0000006007FFFFFFFFEB5ADEDB57EE052
:10905C000000000000000000B95E0B00D15E0B00A8
:10906C0095540B0065700B00E55E0B009B4E0B00DE
:10907C009D4E0B00CF4E0B00AB4E0B00BD4E0B00AC
:10908C00DD4D0B009B4E0B00C7500B0083600B009B
:10909C002B660B00DD650B005F4F0B00A54F0B0023
:1090AC00C14F0B0045500B000080C0E0F0F8FCFEF7
:1090BC00000103070F1F3F7FAED580A8D300408D62
:1090CC002000A1C8DB40A4A62EAFDA02818FDA12F1
:1090DC0081DA02812200FF21000000000000000064
:1090EC0000000000A36D0B00996D0B008F6D0B0041
:1090FC00856D0B00796D0B006D6D0B005D7D0B00AC
:10910C00657D0B00616D0B00596D0B004F6D0B00F5
:10911C00456D0B00957D0B00000810182028303889
:10912C0000000000000000006170700025592D2522
:10913C006D2D25645425483A254D3A2553257A0042
:10914C0061736374696D650000000000000000002D
:10915C0085730B0075730B0077730B000000000018
:10916C000000000097740B00FF740B00D5740B000B
:10917C0065700B00C7740B0099740B00A9740B007D
:10918C00F9740B00B9740B0091740B000000000013
:10919C0000000000A1750B000D760B00E5750B00AF
:1091AC0065700B00B5750B00D1750B00C3750B000A
:1091BC00DF750B00A3750B00A7750B0000000000FA
:1091CC000000000045760B008F760B0067760B00D5
:1091DC0047760B006F760B0077760B007F760B00D3
:1091EC0087760B00776972696E670072656376200B
:1091FC006572726F72203D20256400000000000033
:10920C00000000008D770B00B1770B009B7C0B00EE
:10921C00BF770B0091770B000000000000000000EE
:10922C0005720B001D720B0009770B0023770B00E6
:10923C00317B0B004D770B00A7790B0081770B006E
:10924C00397A0B0079780B00D5790B00E57B0B0094
:10925C0075790B0083770B0035770B00C5770B0006
:10926C0059780B000000000000000000FF7C0B0090
:10927C00F57C0B00EB7C0B00A17C0B00DF7C0B0066
:10928C00D37C0B005D7D0B00657D0B00C77C0B0058
:10929C00BF7C0B00B57C0B00AB7C0B00957D0B00F1
:1092AC0000000000000000001D7D0B00277D0B005E
:1092BC00317D0B003B7D0B00457D0B00517D0B0080
:1092CC005D7D0B00657D0B006D7D0B00797D0B00CA
:1092DC00817D0B008B7D0B00957D0B000053743151
:1092EC00395F53705F6D616B655F73686172656444
:1092FC005F7461670000000044930B00E9920B005F
:10930C00A4930B0018930B00C8930B004E31305FE5
:10931C005F637878616269763131375F5F636C6166
:10932C0073735F747970655F696E666F45000000DA
:10933C00000000000C930B00C5800B00D9800B00C3
:10934C006D820B006D820B0043810B0085800B003E
:10935C002B810B00ED800B00B7800B00A4930B004E
:10936C0074930B000C930B004E31305F5F63787875
:10937C00616269763132305F5F73695F636C617310
:10938C00735F747970655F696E666F4500000000ED
:10939C000000000068930B006D810B0081810B00B5
:1093AC006D820B006D820B0043810B0085800B00DE
:1093BC0041820B00CD810B0095810B0044930B0077
:1093CC00D0930B00537439747970655F696E666F56
:1093DC00005245454E54206D616C6C6F6320737563
:1093EC0063636565646564002F6D6E742F776F72AF
:1093FC006B73706163652F776F726B7370616365EC
:10940C002F4743432D31302D706970656C696E6543
:10941C002F6A656E6B696E732D4743432D31302D6A
:10942C00706970656C696E652D34385F323032301E
:10943C00313132345F313630363138303634312FC9
:10944C007372632F6E65776C69622F6E65776C69CA
:10945C00622F6C6962632F7374646C69622F726122
:10946C006E642E6300002020202020202020202845
:10947C0028282828202020202020202020202020C0
:10948C0020202020202088101010101010101010F8
:10949C001010101010100404040404040404040438
:1094AC0010101010101010414141414141010101B7
:1094BC000101010101010101010101010101010190
:1094CC00011010101010104242424242420202029D
:1094DC000202020202020202020202020202020260
:1094EC00021010101020000000000000000000000E
:1094FC000000000000000000000000000000000060
:10950C00000000000000000000000000000000004F
:10951C00000000000000000000000000000000003F
:10952C00000000000000000000000000000000002F
:10953C00000000000000000000000000000000001F
:10954C00000000000000000000000000000000000F
:10955C0000000000000000000000000000000000FF
:10956C00000000000000000089470B004D4D0B006F
:10957C00AD6D0B00256F0B0055700B00D9710B00F6
:10958C00E9710B0031720B00097D0B006D7E0B0035
:08959C0050ABFF7F010000004D
:1095A400040000001400000003000000474E5500B2
:1095B4004715AD2CEDE04B4840F29CAF642726B232
:0495C4009BD00E85A5
:1095C8000200000001000000320000000C00000052
:1095D8004C910B00E8E403200000000000000000AC
:1095E8000000000000000000000000000000000073
:1095F8000000000000000000000000000000000063
:109608000000000000000000000000000000000052
:109618000000000000000000000000000000000042
:109628000000000000000000000000000000000032
:0C9638000000000000000000F0E703202C
:049644000000000022
:10964E0000000102030405060708090A0B0C0D0EA3
:10965E000F101112131415161718191A1B1C1D1E94
:04966E001F20280091
:0496720078563412E0
:04000003B000401CED
:00000001FF
